{
  "contractName": "HotelRoomBooking",
  "abi": [
    {
      "inputs": [
        {
          "internalType": "uint256",
          "name": "_noOfRooms",
          "type": "uint256"
        }
      ],
      "stateMutability": "nonpayable",
      "type": "constructor"
    },
    {
      "anonymous": false,
      "inputs": [
        {
          "indexed": false,
          "internalType": "address",
          "name": "_bookedBy",
          "type": "address"
        },
        {
          "indexed": false,
          "internalType": "uint256",
          "name": "_price",
          "type": "uint256"
        },
        {
          "indexed": false,
          "internalType": "uint256",
          "name": "_roomNumber",
          "type": "uint256"
        },
        {
          "indexed": false,
          "internalType": "bytes",
          "name": "data",
          "type": "bytes"
        }
      ],
      "name": "roomBooked",
      "type": "event"
    },
    {
      "inputs": [],
      "name": "owner",
      "outputs": [
        {
          "internalType": "address payable",
          "name": "",
          "type": "address"
        }
      ],
      "stateMutability": "view",
      "type": "function",
      "constant": true
    },
    {
      "inputs": [
        {
          "internalType": "uint256",
          "name": "",
          "type": "uint256"
        }
      ],
      "name": "rooms",
      "outputs": [
        {
          "internalType": "uint256",
          "name": "roomNo",
          "type": "uint256"
        },
        {
          "internalType": "address",
          "name": "bookedBy",
          "type": "address"
        },
        {
          "internalType": "uint256",
          "name": "price",
          "type": "uint256"
        },
        {
          "internalType": "bool",
          "name": "isBooked",
          "type": "bool"
        }
      ],
      "stateMutability": "view",
      "type": "function",
      "constant": true
    },
    {
      "inputs": [],
      "name": "getRooms",
      "outputs": [
        {
          "components": [
            {
              "internalType": "uint256",
              "name": "roomNo",
              "type": "uint256"
            },
            {
              "internalType": "address",
              "name": "bookedBy",
              "type": "address"
            },
            {
              "internalType": "uint256",
              "name": "price",
              "type": "uint256"
            },
            {
              "internalType": "bool",
              "name": "isBooked",
              "type": "bool"
            }
          ],
          "internalType": "struct HotelRoomBooking.Room[]",
          "name": "",
          "type": "tuple[]"
        }
      ],
      "stateMutability": "view",
      "type": "function",
      "constant": true
    },
    {
      "inputs": [
        {
          "internalType": "uint256",
          "name": "_roomNumber",
          "type": "uint256"
        }
      ],
      "name": "bookRoom",
      "outputs": [],
      "stateMutability": "payable",
      "type": "function",
      "payable": true
    },
    {
      "inputs": [],
      "name": "getTotalIncome",
      "outputs": [
        {
          "internalType": "uint256",
          "name": "",
          "type": "uint256"
        }
      ],
      "stateMutability": "view",
      "type": "function",
      "constant": true
    },
    {
      "inputs": [
        {
          "internalType": "uint256",
          "name": "_price",
          "type": "uint256"
        }
      ],
      "name": "addRoom",
      "outputs": [],
      "stateMutability": "nonpayable",
      "type": "function"
    }
  ],
  "bytecode": "0x60806040523480156200001157600080fd5b5060405162001130380380620011308339818101604052810190620000379190620001da565b336000806101000a81548173ffffffffffffffffffffffffffffffffffffffff021916908373ffffffffffffffffffffffffffffffffffffffff16021790555060005b818110156200019257600260405180608001604052806001846200009f91906200023b565b8152602001600073ffffffffffffffffffffffffffffffffffffffff1681526020016702c68af0bb14000081526020016000151581525090806001815401808255809150506001900390600052602060002090600402016000909190919091506000820151816000015560208201518160010160006101000a81548173ffffffffffffffffffffffffffffffffffffffff021916908373ffffffffffffffffffffffffffffffffffffffff1602179055506040820151816002015560608201518160030160006101000a81548160ff02191690831515021790555050508080620001899062000276565b9150506200007a565b5050620002c3565b600080fd5b6000819050919050565b620001b4816200019f565b8114620001c057600080fd5b50565b600081519050620001d481620001a9565b92915050565b600060208284031215620001f357620001f26200019a565b5b60006200020384828501620001c3565b91505092915050565b7f4e487b7100000000000000000000000000000000000000000000000000000000600052601160045260246000fd5b600062000248826200019f565b915062000255836200019f565b925082820190508082111562000270576200026f6200020c565b5b92915050565b600062000283826200019f565b91507fffffffffffffffffffffffffffffffffffffffffffffffffffffffffffffffff8203620002b857620002b76200020c565b5b600182019050919050565b610e5d80620002d36000396000f3fe6080604052600436106100555760003560e01c80631bae0ac81461005a57806324b6046a1461009a578063276a45f8146100c55780635f49d3d8146100ee5780638da5cb5b1461010a578063d08f6a6b14610135575b600080fd5b34801561006657600080fd5b50610081600480360381019061007c91906107ab565b610160565b6040516100919493929190610843565b60405180910390f35b3480156100a657600080fd5b506100af6101cd565b6040516100bc9190610888565b60405180910390f35b3480156100d157600080fd5b506100ec60048036038101906100e791906107ab565b610232565b005b610108600480360381019061010391906107ab565b610336565b005b34801561011657600080fd5b5061011f610668565b60405161012c91906108c4565b60405180910390f35b34801561014157600080fd5b5061014a61068c565b6040516101579190610a10565b60405180910390f35b6002818154811061017057600080fd5b90600052602060002090600402016000915090508060000154908060010160009054906101000a900473ffffffffffffffffffffffffffffffffffffffff16908060020154908060030160009054906101000a900460ff16905084565b60008060009054906101000a900473ffffffffffffffffffffffffffffffffffffffff168073ffffffffffffffffffffffffffffffffffffffff163373ffffffffffffffffffffffffffffffffffffffff161461022957600080fd5b60015491505090565b6000811161023f57600080fd5b60026040518060800160405280600160028054905061025e9190610a61565b8152602001600073ffffffffffffffffffffffffffffffffffffffff1681526020018381526020016000151581525090806001815401808255809150506001900390600052602060002090600402016000909190919091506000820151816000015560208201518160010160006101000a81548173ffffffffffffffffffffffffffffffffffffffff021916908373ffffffffffffffffffffffffffffffffffffffff1602179055506040820151816002015560608201518160030160006101000a81548160ff021916908315150217905550505050565b8060001515600260018361034a9190610a95565b8154811061035b5761035a610ac9565b5b906000526020600020906004020160030160009054906101000a900460ff161515146103bc576040517f08c379a00000000000000000000000000000000000000000000000000000000081526004016103b390610b55565b60405180910390fd5b60026001836103cb9190610a95565b815481106103dc576103db610ac9565b5b906000526020600020906004020160020154341015610430576040517f08c379a000000000000000000000000000000000000000000000000000000000815260040161042790610be7565b60405180910390fd5b60008211801561044557506002805490508211155b610484576040517f08c379a000000000000000000000000000000000000000000000000000000000815260040161047b90610c53565b60405180910390fd5b60008060008054906101000a900473ffffffffffffffffffffffffffffffffffffffff1673ffffffffffffffffffffffffffffffffffffffff16346040516104cb90610ca4565b60006040518083038185875af1925050503d8060008114610508576040519150601f19603f3d011682016040523d82523d6000602084013e61050d565b606091505b509150915081610552576040517f08c379a000000000000000000000000000000000000000000000000000000000815260040161054990610d2b565b60405180910390fd5b3360026001866105629190610a95565b8154811061057357610572610ac9565b5b906000526020600020906004020160010160006101000a81548173ffffffffffffffffffffffffffffffffffffffff021916908373ffffffffffffffffffffffffffffffffffffffff160217905550600160026001866105d39190610a95565b815481106105e4576105e3610ac9565b5b906000526020600020906004020160030160006101000a81548160ff021916908315150217905550346001600082825461061e9190610a61565b925050819055507f651bc5005bc06bc39cfce80da19eb6bdccb1db4a47a2ee6ce8f8e69bafd93eab3334868460405161065a9493929190610ddb565b60405180910390a150505050565b60008054906101000a900473ffffffffffffffffffffffffffffffffffffffff1681565b60606002805480602002602001604051908101604052809291908181526020016000905b828210156107675783829060005260206000209060040201604051806080016040529081600082015481526020016001820160009054906101000a900473ffffffffffffffffffffffffffffffffffffffff1673ffffffffffffffffffffffffffffffffffffffff1673ffffffffffffffffffffffffffffffffffffffff168152602001600282015481526020016003820160009054906101000a900460ff161515151581525050815260200190600101906106b0565b50505050905090565b600080fd5b6000819050919050565b61078881610775565b811461079357600080fd5b50565b6000813590506107a58161077f565b92915050565b6000602082840312156107c1576107c0610770565b5b60006107cf84828501610796565b91505092915050565b6107e181610775565b82525050565b600073ffffffffffffffffffffffffffffffffffffffff82169050919050565b6000610812826107e7565b9050919050565b61082281610807565b82525050565b60008115159050919050565b61083d81610828565b82525050565b600060808201905061085860008301876107d8565b6108656020830186610819565b61087260408301856107d8565b61087f6060830184610834565b95945050505050565b600060208201905061089d60008301846107d8565b92915050565b60006108ae826107e7565b9050919050565b6108be816108a3565b82525050565b60006020820190506108d960008301846108b5565b92915050565b600081519050919050565b600082825260208201905092915050565b6000819050602082019050919050565b61091481610775565b82525050565b61092381610807565b82525050565b61093281610828565b82525050565b60808201600082015161094e600085018261090b565b506020820151610961602085018261091a565b506040820151610974604085018261090b565b5060608201516109876060850182610929565b50505050565b60006109998383610938565b60808301905092915050565b6000602082019050919050565b60006109bd826108df565b6109c781856108ea565b93506109d2836108fb565b8060005b83811015610a035781516109ea888261098d565b97506109f5836109a5565b9250506001810190506109d6565b5085935050505092915050565b60006020820190508181036000830152610a2a81846109b2565b905092915050565b7f4e487b7100000000000000000000000000000000000000000000000000000000600052601160045260246000fd5b6000610a6c82610775565b9150610a7783610775565b9250828201905080821115610a8f57610a8e610a32565b5b92915050565b6000610aa082610775565b9150610aab83610775565b9250828203905081811115610ac357610ac2610a32565b5b92915050565b7f4e487b7100000000000000000000000000000000000000000000000000000000600052603260045260246000fd5b600082825260208201905092915050565b7f54686520526f6f6d2069732063757272656e746c79206f636375706965640000600082015250565b6000610b3f601e83610af8565b9150610b4a82610b09565b602082019050919050565b60006020820190508181036000830152610b6e81610b32565b9050919050565b7f5468652071756f7465642065746865722076616c756520697320746f6f20736d60008201527f616c6c20746f20626f6f6b207468697320526f6f6d0000000000000000000000602082015250565b6000610bd1603583610af8565b9150610bdc82610b75565b604082019050919050565b60006020820190508181036000830152610c0081610bc4565b9050919050565b7f54686520526f6f6d206e756d626572206973206e6f742076616c696400000000600082015250565b6000610c3d601c83610af8565b9150610c4882610c07565b602082019050919050565b60006020820190508181036000830152610c6c81610c30565b9050919050565b600081905092915050565b50565b6000610c8e600083610c73565b9150610c9982610c7e565b600082019050919050565b6000610caf82610c81565b9150819050919050565b7f546865726520697320616e206973737565207768696c65207472616e7366657260008201527f72696e6720746865205072696365000000000000000000000000000000000000602082015250565b6000610d15602e83610af8565b9150610d2082610cb9565b604082019050919050565b60006020820190508181036000830152610d4481610d08565b9050919050565b600081519050919050565b600082825260208201905092915050565b60005b83811015610d85578082015181840152602081019050610d6a565b60008484015250505050565b6000601f19601f8301169050919050565b6000610dad82610d4b565b610db78185610d56565b9350610dc7818560208601610d67565b610dd081610d91565b840191505092915050565b6000608082019050610df06000830187610819565b610dfd60208301866107d8565b610e0a60408301856107d8565b8181036060830152610e1c8184610da2565b90509594505050505056fea2646970667358221220940b8bc96a61665d33b1a8c131e7f7a4e0cf5895da004b20f6bd163d8e40090864736f6c63430008110033",
  "immutableReferences": {},
  "source": "// SPDX-License-Identifier: MIT\npragma solidity >=0.4.22 <0.9.0;\n\ncontract HotelRoomBooking {\n    struct Room {\n        uint256 roomNo;\n        address bookedBy;\n        uint256 price;\n        bool isBooked;\n    }\n\n    address payable public owner;\n    uint256 totalRevenue;\n    Room[] public rooms;\n\n    function getRooms() external view returns (Room[] memory) {\n        return rooms;\n    }\n\n    constructor(uint256 _noOfRooms) {\n        owner = payable(msg.sender);\n\n        // Construct the Available Rooms\n        for (uint256 index = 0; index < _noOfRooms; index++) {\n            rooms.push(Room(index + 1, address(0x0), 2e17, false));\n        }\n    }\n\n    // FUNCTION - To book the hotel rooms\n    function bookRoom(uint256 _roomNumber)\n        external\n        payable\n        roomIsNotOccupied(_roomNumber)\n    {\n        require(\n            msg.value >= rooms[_roomNumber - 1].price,\n            \"The quoted ether value is too small to book this Room\"\n        );\n        require(\n            _roomNumber > 0 && _roomNumber <= rooms.length,\n            \"The Room number is not valid\"\n        );\n\n        // Payment\n        (bool moneySentSuccessfully, bytes memory data) = owner.call{\n            value: msg.value\n        }(\"\");\n\n        require(\n            moneySentSuccessfully,\n            \"There is an issue while transferring the Price\"\n        );\n\n        rooms[_roomNumber - 1].bookedBy = msg.sender;\n        rooms[_roomNumber - 1].isBooked = true;\n\n        totalRevenue += msg.value;\n\n        // Event emitter\n        emit roomBooked(msg.sender, msg.value, _roomNumber, data);\n    }\n\n    // FUNCTION - To provide the total revenue for this Owner\n    function getTotalIncome() external view onlyBy(owner) returns (uint256) {\n        return totalRevenue;\n    }\n\n    // FUNCTION - Add new Room to the hotel\n    function addRoom(uint256 _price) external {\n        require(_price > 0);\n        rooms.push(Room(rooms.length + 1, address(0x0), _price, false));\n    }\n\n    // VALIDATION - Validate whether the room is occupied or not\n    modifier roomIsNotOccupied(uint256 _roomNumber) {\n        require(\n            rooms[_roomNumber - 1].isBooked == false,\n            \"The Room is currently occupied\"\n        );\n        _;\n    }\n\n    // VALIDATION - Validate whether the incoming address is the Owner of this Contract\n    modifier onlyBy(address _account) {\n        require(msg.sender == _account);\n        _;\n    }\n\n    event roomBooked(\n        address _bookedBy,\n        uint256 _price,\n        uint256 _roomNumber,\n        bytes data\n    );\n}\n",
  "sourcePath": "D:\\vels\\workspaces\\Blockchain\\eth-Hotel-Room-Booking\\eth-Hotel-Room-Booking\\contracts\\HotelRoomBooking.sol",
  "compiler": {
    "name": "solc",
    "version": "0.8.17+commit.8df45f5f.Emscripten.clang"
  },
  "schemaVersion": "3.4.11",
  "updatedAt": "2022-12-16T04:21:03.951Z",
  "networkType": "ethereum",
  "devdoc": {
    "kind": "dev",
    "methods": {},
    "version": 1
  },
  "userdoc": {
    "kind": "user",
    "methods": {},
    "version": 1
  }
}