{
  "contractName": "HotelRoomBooking",
  "abi": [
    {
      "inputs": [
        {
          "internalType": "uint256",
          "name": "_noOfRooms",
          "type": "uint256"
        }
      ],
      "stateMutability": "nonpayable",
      "type": "constructor"
    },
    {
      "anonymous": false,
      "inputs": [
        {
          "indexed": false,
          "internalType": "address",
          "name": "_bookedBy",
          "type": "address"
        },
        {
          "indexed": false,
          "internalType": "uint256",
          "name": "_price",
          "type": "uint256"
        },
        {
          "indexed": false,
          "internalType": "uint256",
          "name": "_roomNumber",
          "type": "uint256"
        },
        {
          "indexed": false,
          "internalType": "bytes",
          "name": "data",
          "type": "bytes"
        }
      ],
      "name": "roomBooked",
      "type": "event"
    },
    {
      "inputs": [],
      "name": "owner",
      "outputs": [
        {
          "internalType": "address payable",
          "name": "",
          "type": "address"
        }
      ],
      "stateMutability": "view",
      "type": "function",
      "constant": true
    },
    {
      "inputs": [
        {
          "internalType": "uint256",
          "name": "",
          "type": "uint256"
        }
      ],
      "name": "rooms",
      "outputs": [
        {
          "internalType": "uint256",
          "name": "roomNo",
          "type": "uint256"
        },
        {
          "internalType": "address",
          "name": "bookedBy",
          "type": "address"
        },
        {
          "internalType": "uint256",
          "name": "price",
          "type": "uint256"
        },
        {
          "internalType": "bool",
          "name": "isBooked",
          "type": "bool"
        }
      ],
      "stateMutability": "view",
      "type": "function",
      "constant": true
    },
    {
      "inputs": [],
      "name": "getRooms",
      "outputs": [
        {
          "components": [
            {
              "internalType": "uint256",
              "name": "roomNo",
              "type": "uint256"
            },
            {
              "internalType": "address",
              "name": "bookedBy",
              "type": "address"
            },
            {
              "internalType": "uint256",
              "name": "price",
              "type": "uint256"
            },
            {
              "internalType": "bool",
              "name": "isBooked",
              "type": "bool"
            }
          ],
          "internalType": "struct HotelRoomBooking.Room[]",
          "name": "",
          "type": "tuple[]"
        }
      ],
      "stateMutability": "view",
      "type": "function",
      "constant": true
    },
    {
      "inputs": [
        {
          "internalType": "uint256",
          "name": "_roomNumber",
          "type": "uint256"
        }
      ],
      "name": "bookRoom",
      "outputs": [],
      "stateMutability": "payable",
      "type": "function",
      "payable": true
    },
    {
      "inputs": [],
      "name": "getTotalIncome",
      "outputs": [
        {
          "internalType": "uint256",
          "name": "",
          "type": "uint256"
        }
      ],
      "stateMutability": "view",
      "type": "function",
      "constant": true
    }
  ],
  "bytecode": "0x60806040523480156200001157600080fd5b5060405162000ff838038062000ff88339818101604052810190620000379190620001da565b336000806101000a81548173ffffffffffffffffffffffffffffffffffffffff021916908373ffffffffffffffffffffffffffffffffffffffff16021790555060005b818110156200019257600260405180608001604052806001846200009f91906200023b565b8152602001600073ffffffffffffffffffffffffffffffffffffffff1681526020016702c68af0bb14000081526020016000151581525090806001815401808255809150506001900390600052602060002090600402016000909190919091506000820151816000015560208201518160010160006101000a81548173ffffffffffffffffffffffffffffffffffffffff021916908373ffffffffffffffffffffffffffffffffffffffff1602179055506040820151816002015560608201518160030160006101000a81548160ff02191690831515021790555050508080620001899062000276565b9150506200007a565b5050620002c3565b600080fd5b6000819050919050565b620001b4816200019f565b8114620001c057600080fd5b50565b600081519050620001d481620001a9565b92915050565b600060208284031215620001f357620001f26200019a565b5b60006200020384828501620001c3565b91505092915050565b7f4e487b7100000000000000000000000000000000000000000000000000000000600052601160045260246000fd5b600062000248826200019f565b915062000255836200019f565b925082820190508082111562000270576200026f6200020c565b5b92915050565b600062000283826200019f565b91507fffffffffffffffffffffffffffffffffffffffffffffffffffffffffffffffff8203620002b857620002b76200020c565b5b600182019050919050565b610d2580620002d36000396000f3fe60806040526004361061004a5760003560e01c80631bae0ac81461004f57806324b6046a1461008f5780635f49d3d8146100ba5780638da5cb5b146100d6578063d08f6a6b14610101575b600080fd5b34801561005b57600080fd5b5061007660048036038101906100719190610673565b61012c565b604051610086949392919061070b565b60405180910390f35b34801561009b57600080fd5b506100a4610199565b6040516100b19190610750565b60405180910390f35b6100d460048036038101906100cf9190610673565b6101fe565b005b3480156100e257600080fd5b506100eb610530565b6040516100f8919061078c565b60405180910390f35b34801561010d57600080fd5b50610116610554565b60405161012391906108d8565b60405180910390f35b6002818154811061013c57600080fd5b90600052602060002090600402016000915090508060000154908060010160009054906101000a900473ffffffffffffffffffffffffffffffffffffffff16908060020154908060030160009054906101000a900460ff16905084565b60008060009054906101000a900473ffffffffffffffffffffffffffffffffffffffff168073ffffffffffffffffffffffffffffffffffffffff163373ffffffffffffffffffffffffffffffffffffffff16146101f557600080fd5b60015491505090565b806000151560026001836102129190610929565b815481106102235761022261095d565b5b906000526020600020906004020160030160009054906101000a900460ff16151514610284576040517f08c379a000000000000000000000000000000000000000000000000000000000815260040161027b906109e9565b60405180910390fd5b60026001836102939190610929565b815481106102a4576102a361095d565b5b9060005260206000209060040201600201543410156102f8576040517f08c379a00000000000000000000000000000000000000000000000000000000081526004016102ef90610a7b565b60405180910390fd5b60008211801561030d57506002805490508211155b61034c576040517f08c379a000000000000000000000000000000000000000000000000000000000815260040161034390610ae7565b60405180910390fd5b60008060008054906101000a900473ffffffffffffffffffffffffffffffffffffffff1673ffffffffffffffffffffffffffffffffffffffff163460405161039390610b38565b60006040518083038185875af1925050503d80600081146103d0576040519150601f19603f3d011682016040523d82523d6000602084013e6103d5565b606091505b50915091508161041a576040517f08c379a000000000000000000000000000000000000000000000000000000000815260040161041190610bbf565b60405180910390fd5b33600260018661042a9190610929565b8154811061043b5761043a61095d565b5b906000526020600020906004020160010160006101000a81548173ffffffffffffffffffffffffffffffffffffffff021916908373ffffffffffffffffffffffffffffffffffffffff1602179055506001600260018661049b9190610929565b815481106104ac576104ab61095d565b5b906000526020600020906004020160030160006101000a81548160ff02191690831515021790555034600160008282546104e69190610bdf565b925050819055507f651bc5005bc06bc39cfce80da19eb6bdccb1db4a47a2ee6ce8f8e69bafd93eab333486846040516105229493929190610ca3565b60405180910390a150505050565b60008054906101000a900473ffffffffffffffffffffffffffffffffffffffff1681565b60606002805480602002602001604051908101604052809291908181526020016000905b8282101561062f5783829060005260206000209060040201604051806080016040529081600082015481526020016001820160009054906101000a900473ffffffffffffffffffffffffffffffffffffffff1673ffffffffffffffffffffffffffffffffffffffff1673ffffffffffffffffffffffffffffffffffffffff168152602001600282015481526020016003820160009054906101000a900460ff16151515158152505081526020019060010190610578565b50505050905090565b600080fd5b6000819050919050565b6106508161063d565b811461065b57600080fd5b50565b60008135905061066d81610647565b92915050565b60006020828403121561068957610688610638565b5b60006106978482850161065e565b91505092915050565b6106a98161063d565b82525050565b600073ffffffffffffffffffffffffffffffffffffffff82169050919050565b60006106da826106af565b9050919050565b6106ea816106cf565b82525050565b60008115159050919050565b610705816106f0565b82525050565b600060808201905061072060008301876106a0565b61072d60208301866106e1565b61073a60408301856106a0565b61074760608301846106fc565b95945050505050565b600060208201905061076560008301846106a0565b92915050565b6000610776826106af565b9050919050565b6107868161076b565b82525050565b60006020820190506107a1600083018461077d565b92915050565b600081519050919050565b600082825260208201905092915050565b6000819050602082019050919050565b6107dc8161063d565b82525050565b6107eb816106cf565b82525050565b6107fa816106f0565b82525050565b60808201600082015161081660008501826107d3565b50602082015161082960208501826107e2565b50604082015161083c60408501826107d3565b50606082015161084f60608501826107f1565b50505050565b60006108618383610800565b60808301905092915050565b6000602082019050919050565b6000610885826107a7565b61088f81856107b2565b935061089a836107c3565b8060005b838110156108cb5781516108b28882610855565b97506108bd8361086d565b92505060018101905061089e565b5085935050505092915050565b600060208201905081810360008301526108f2818461087a565b905092915050565b7f4e487b7100000000000000000000000000000000000000000000000000000000600052601160045260246000fd5b60006109348261063d565b915061093f8361063d565b9250828203905081811115610957576109566108fa565b5b92915050565b7f4e487b7100000000000000000000000000000000000000000000000000000000600052603260045260246000fd5b600082825260208201905092915050565b7f54686520526f6f6d2069732063757272656e746c79206f636375706965640000600082015250565b60006109d3601e8361098c565b91506109de8261099d565b602082019050919050565b60006020820190508181036000830152610a02816109c6565b9050919050565b7f5468652071756f7465642065746865722076616c756520697320746f6f20736d60008201527f616c6c20746f20626f6f6b207468697320526f6f6d0000000000000000000000602082015250565b6000610a6560358361098c565b9150610a7082610a09565b604082019050919050565b60006020820190508181036000830152610a9481610a58565b9050919050565b7f54686520526f6f6d206e756d626572206973206e6f742076616c696400000000600082015250565b6000610ad1601c8361098c565b9150610adc82610a9b565b602082019050919050565b60006020820190508181036000830152610b0081610ac4565b9050919050565b600081905092915050565b50565b6000610b22600083610b07565b9150610b2d82610b12565b600082019050919050565b6000610b4382610b15565b9150819050919050565b7f546865726520697320616e206973737565207768696c65207472616e7366657260008201527f72696e6720746865205072696365000000000000000000000000000000000000602082015250565b6000610ba9602e8361098c565b9150610bb482610b4d565b604082019050919050565b60006020820190508181036000830152610bd881610b9c565b9050919050565b6000610bea8261063d565b9150610bf58361063d565b9250828201905080821115610c0d57610c0c6108fa565b5b92915050565b600081519050919050565b600082825260208201905092915050565b60005b83811015610c4d578082015181840152602081019050610c32565b60008484015250505050565b6000601f19601f8301169050919050565b6000610c7582610c13565b610c7f8185610c1e565b9350610c8f818560208601610c2f565b610c9881610c59565b840191505092915050565b6000608082019050610cb860008301876106e1565b610cc560208301866106a0565b610cd260408301856106a0565b8181036060830152610ce48184610c6a565b90509594505050505056fea2646970667358221220a2a64b782fbfd7c2c3b3b7c3d01a450fde784723de2852e1f395515bd007bd8964736f6c63430008110033",
  "immutableReferences": {},
  "source": "// SPDX-License-Identifier: MIT\npragma solidity >=0.4.22 <0.9.0;\n\ncontract HotelRoomBooking {\n    struct Room {\n        uint256 roomNo;\n        address bookedBy;\n        uint256 price;\n        bool isBooked;\n    }\n\n    address payable public owner;\n    uint256 totalRevenue;\n    Room[] public rooms;\n\n    function getRooms() external view returns (Room [] memory) {\n        return rooms;\n    }\n\n    constructor(uint256 _noOfRooms) {\n        owner = payable(msg.sender);\n\n        // Construct the Available Rooms\n        for (uint256 index = 0; index < _noOfRooms; index++) {\n            rooms.push(Room(index + 1, address(0x0), 2e17, false));\n        }\n    }\n\n    // FUNCTION - To book the hotel rooms\n    function bookRoom(uint256 _roomNumber)\n        external\n        payable\n        roomIsNotOccupied(_roomNumber)\n    {\n        require(\n            msg.value >= rooms[_roomNumber - 1].price,\n            \"The quoted ether value is too small to book this Room\"\n        );\n        require(\n            _roomNumber > 0 && _roomNumber <= rooms.length,\n            \"The Room number is not valid\"\n        );\n\n        // Payment\n        (bool moneySentSuccessfully, bytes memory data) = owner.call{\n            value: msg.value\n        }(\"\");\n\n        require(\n            moneySentSuccessfully,\n            \"There is an issue while transferring the Price\"\n        );\n\n        rooms[_roomNumber - 1].bookedBy = msg.sender;\n        rooms[_roomNumber - 1].isBooked = true;\n\n        totalRevenue += msg.value;\n\n        // Event emitter\n        emit roomBooked(msg.sender, msg.value, _roomNumber, data);\n    }\n\n    // FUNCTION - To provide the total revenue for this Owner\n    function getTotalIncome() external view onlyBy(owner) returns (uint256) {\n        return totalRevenue;\n    }\n\n    // VALIDATION - Validate whether the room is occupied or not\n    modifier roomIsNotOccupied(uint256 _roomNumber) {\n        require(\n            rooms[_roomNumber - 1].isBooked == false,\n            \"The Room is currently occupied\"\n        );\n        _;\n    }\n\n    // VALIDATION - Validate whether the incoming address is the Owner of this Contract\n    modifier onlyBy(address _account) {\n        require(msg.sender == _account);\n        _;\n    }\n\n    event roomBooked(\n        address _bookedBy,\n        uint256 _price,\n        uint256 _roomNumber,\n        bytes data\n    );\n}\n",
  "sourcePath": "D:\\vels\\workspaces\\Blockchain\\eth-Hotel-Room-Booking\\eth-Hotel-Room-Booking\\contracts\\HotelRoomBooking.sol",
  "compiler": {
    "name": "solc",
    "version": "0.8.17+commit.8df45f5f.Emscripten.clang"
  },
  "schemaVersion": "3.4.11",
  "updatedAt": "2022-12-15T18:18:19.339Z",
  "networkType": "ethereum",
  "devdoc": {
    "kind": "dev",
    "methods": {},
    "version": 1
  },
  "userdoc": {
    "kind": "user",
    "methods": {},
    "version": 1
  }
}